:020000021000EC
:10C00000008000207DCD0100B9CD0100BBCD010035
:10C010000000000000000000000000000000000020
:10C02000000000000000000000000000BDCD010085
:10C030000000000000000000BFCD0100C1CD0100E4
:10C04000C3CD0100C3CD010059EC0100C3CD0100F7
:10C05000C3CD010000000000C3CD0100C3CD01002D
:10C06000C3CD0100C3CD0100E9EA0100C3CD010049
:10C07000C3CD0100C3CD0100C3CD0100C3CD01007C
:10C08000C3CD01006DEE0100C3CD0100C3CD0100A1
:10C09000C3CD010091F001003DF20100C3CD0100CC
:10C0A000C3CD0100C3CD010000000000000000006E
:10C0B0000000000000000000000000000000000080
:10C0C00010B5064C2378002B07D1054B002B02D06E
:10C0D000044800E000BF0123237010BDBC280020ED
:10C0E00000000000CC3B020008B5084B002B03D039
:10C0F0000748084900E000BF07480368002B03D049
:10C10000064B002B00D0984708BDC0460000000039
:10C11000CC3B0200C0280020BC280020000000000A
:10C12000164B002B00D1144B9D46402292029A1AC6
:10C13000924600218B460F461348144A121A05F006
:10C1400065FB0F4B002B00D098470E4B002B00D007
:10C1500098470020002104000D000D48002802D05F
:10C160000C4800E000BF05F0DBFA2000290001F0D8
:10C170001FF805F0BFFAC04600000800008000204C
:10C180000000000000000000BC2800203C3200201D
:10C19000000000000000000010B5054B041C036007
:10C1A00001F041F8201C01F07FF8201C10BDC046B2
:10C1B0000034020010B5041CFFF7EEFF201C05F050
:10C1C00063FA201C10BD0000F7B5122002F0C8F978
:10C1D000474B484E1860484B484F1A68051C0232BE
:10C1E0001A6033680192D41A3B6898420EDA444BC5
:10C1F0000521186805F0BCFF03235843844226DD5F
:10C20000404B1A68954222DA1D6020E098420BDD0F
:10C210003D4B1A68904200DD1860FA2C04DD3B4B60
:10C220001B780093002B27D0394B9C425FDD364AA8
:10C2300080239B001360334A3B601360019A354BA7
:10C24000326001221A70344B00221A704FE02F4BDB
:10C250001A78012AE8D12B482B4D00221A70016868
:10C260002B685A1A2D4B1A60D30F9B185B105B1862
:10C270003B602B600360D7E7214D0521286805F05E
:10C2800077FF032358438442CEDD204A01231370F5
:10C29000019B214A336013782C60002B08D11D4983
:10C2A0000B78181E0CD000230B70012313701EE0B6
:10C2B000009B13701A495C500433282BFAD1EEE727
:10C2C000174AD1184968995004334018242BF7D1E4
:10C2D00054620A21001905F0FDFE011C114805F009
:10C2E000F9FE114B01221860104B1A709CE7F7BD44
:10C2F00080290020282A0020242A00201828002035
:10C30000082800200428002020280020202A0020BF
:10C31000C40900001C2800204E2A00200C28002000
:10C320002029002060EA00002C2A00204829002053
:10C3300070B51D1CC37F041C5E1901201D2E13DC6B
:10C340002818E054E37F0133DBB2E377E154E07F68
:10C35000111C0130C0B2E0772A1C201805F034FA15
:10C36000E37F0020ED18E57770BD08B50368011C78
:10C37000021C0A3134321B6D984708BD38B50123C1
:10C38000041C03700D1CC018211C031C1131002259
:10C390001A7001338B42FAD1012362822370291C67
:10C3A000102205F011FAAB78EA781B021343201C27
:10C3B000638238BDF7B51E1C08AB1B88451C009373
:10C3C00009AB1B78041C01930B78171C03704B8A74
:10C3D000102243820131281C05F0F6F90099019AD8
:10C3E0000023618367612683A683E3830121EA77C3
:10C3F000A21CD1770A99263261620B995370117091
:10C40000211C93704431E36223630C3200231370C8
:10C4100001328A42FAD1221C211C6364A364E362C4
:10C42000E3642365543264310023137001328A427D
:10C43000FAD1201C6366A366E364FEBD08B50068FC
:10C440000368DB68984708BD08B5006803685B6946
:10C45000984708BD10B5FFF7F1FF041CFFF785FFF3
:10C46000211C08C9201C5B6D984710BD10B5064CF7
:10C470000649201C02F01AF80549201C02F016F8A3
:10C480000448FFF7E7FF10BDA42F00202833020067
:10C4900036330200302A0020F7B51C1C08AB0E1CF6
:10C4A000151C1F78FFF7D0FF03680097DF68311C69
:10C4B0002A1C231CB847FEBDF0B5184F87B0381CA6
:10C4C00000F0FEFBFA21890005F004FE144A000486
:10C4D000030C144C144E1360002502AA0A21000E0E
:10C4E000117050709370F18B05230095201CFFF79D
:10C4F000D3FF381C00F0ACFB05F018FF0B4B04AA6F
:10C5000018800B231370030A53709070F18B201C5A
:10C5100000950323FFF7C0FF07B0F0BD08290020F6
:10C52000342A0020302A0020502A00204C2A0020E3
:10C5300073B51120012102F083F81120002102F0CF
:10C54000A7F8554E9621301C890102F04DF90321C0
:10C55000524800F021FB524C201C00F01DFE201C14
:10C56000FFF76CFF4F4B4366201CFFF76DFF051C68
:10C57000202005F075F8002202604260021C031CB6
:10C58000083218300021117001328242FAD1464A35
:10C590009961D9611A606A698A4200D0DA616B6177
:10C5A000201CFFF74BFF6A46042307320121051CBC
:10C5B00013700A300B1CFFF7BBFE002802D1281CA9
:10C5C000FFF7D3FE201CFFF739FF0821051C374A6F
:10C5D0000A300423FFF7ACFE002802D1281CFFF725
:10C5E000C4FE201CFFF72AFF0721051C304A0A3031
:10C5F0001023FFF79DFE002802D1281CFFF7B5FE8F
:10C60000201CFFF71BFF00230371201CFFF71CFFFA
:10C61000036828491B689847201CFFF70FFF036831
:10C6200025495B6B9847201CFFF708FF036804212E
:10C630005B6C9847201CFFF701FF0368051C9B6893
:10C640009847A023984204D92B68281C9B689847D8
:10C65000031CFA2080005843184905F03BFDE88090
:10C66000201CFFF7EBFE00250581201CFFF7F2FEE2
:10C670001348144BC5628361134900F0DCFD301C84
:10C68000124901F013FF1248124BFA21C56283616F
:10C69000C90000F0D0FD73BDA42F002008290020A0
:10C6A000302A00206DC4010039C80100593302004E
:10C6B00018330200602900205E330200710200007E
:10C6C000F0290020B9C40100400D03006A330200C4
:10C6D000D8280020C9C1010030B5154D85B0297892
:10C6E000012923D1134B1A681C1C293A852A09D821
:10C6F000112001F0CDFFC82001F09BFF1120002187
:10C7000001F0C6FF03AA0C231370236800245370A2
:10C71000094B0A48D98B02230094FFF7BDFE122073
:10C7200001F01EFF132001F01BFF2C7005B030BD7F
:10C73000482900202C2A0020502A0020302A0020DE
:10C74000F0B52D4D8BB0281C00F088FD2B4F2C4EE2
:10C7500000242C4B391C321CAC61EC62281C2B6071
:10C7600004F0AAFF284800F0A5F900F02BFE274DA1
:10C77000274B1860281C00F071FD224B321C2B60E7
:10C78000AC61EC62391C281C05AD04F095FF281C37
:10C790002049FFF7F3FD14260C2300960193291C72
:10C7A0001D4A0123029403941C48FFF703FE10273F
:10C7B000281C1B49FFF7E2FD0096291C194A01239A
:10C7C0000197029403941848FFF7F4FD281C1749B9
:10C7D000FFF7D4FD164E2B78694633706B8A701CB8
:10C7E000738215313A1C04F0EFFF02233375114BAD
:10C7F000B483B3610BB0F0BDD828002099C101000B
:10C80000002800200034020008290020F029002020
:10C81000302A002099330200492900208429002071
:10C82000A9330200382A0020502A00208933020050
:10C830006029002010280020F0B5164A0388D48B08
:10C8400087B09C4224D11448FFF7FEFD6D46036873
:10C85000023501AF5E68211C3A1C2B1CB0470F4EFD
:10C860000F49301C01F00DFE2988301C102201F008
:10C870006CFE00242B88A34206D9395D301C01349C
:10C8800001F05AFFE4B2F5E7301C064901F00EFE54
:10C8900007B0F0BD84290020302A0020A42F0020FA
:10C8A0007D3302005D3B0200031C313330300278DF
:10C8B0001B780020934200D8D01A7047021C011C3C
:10C8C0003132303113780978994204D9591C1170EA
:10C8D000C318187C01E0012040427047031C021C71
:10C8E000313330321B7812789A4202D9C018007C5A
:10C8F00001E0012040427047704710B5021C6832C9
:10C900001278031C0120022A0AD11C1C52342278FE
:10C910001F2A05D89B1810183033207099700020FA
:10C9200010BD70B5031C68331C780023022C0ED197
:10C9300093420CD0051C52352C781F2C07D8661C4E
:10C940002E70CD5C04193034A5700133F0E7181C4B
:10C9500070BD000038B5FA239B0083600B4B0025A7
:10C9600008330360031C303345601D705D70223353
:10C97000041C1D705D709D70291C1022583004F03D
:10C9800045FF231C68331D70201C38BDC0330200D6
:10C9900038B5041C032001F04BFD051C022001F0FA
:10C9A00047FD011C201C2A1C583000F0F3FA6834A3
:10C9B0000023237038BD031C49005433021C197036
:10C9C000533200231370013A13706830022303704E
:10C9D00070470000F0B5071C85B05837031C03975B
:10C9E0000E1C5433021C063F1978041C3B7832326B
:10C9F0000096039800F0A0FB231C68330122C5B207
:10CA0000002038701A70A36D191CFC318A6A012A43
:10CA100011D10D4C1F59A44602243C40844203D03E
:10CA20008862FF255A6106E06746D859470702D554
:10CA30008C62FE255A61002E02D0039800F00CFB98
:10CA400068B205B0F0BDC046C404000008B50121BD
:10CA5000FFF7C0FF08BD73B5151C4900021CC9B221
:10CA60005432041C1170202D02D8002D0AD000E091
:10CA70002025201C221C0093583010322B1C00F063
:10CA800017FBC6B2231C313300223034301C1A701D
:10CA9000267076BD08B5C9B2D2B20123FFF7DBFF1D
:10CAA00008BD000008B50248FFF754FF08BDC046A6
:10CAB000BC2A0020704710B5C28A848A891A4C4368
:10CAC000031C1022995E0E22805EE4136118C002DE
:10CAD00005F04EFB201810BD70B5094C0E1C201C33
:10CAE0007721151CFFF767FF311C201CFFF705FF9E
:10CAF000291C201CFFF701FF201CFFF7A7FF70BDBA
:10CB0000BC2A002038B50F4C0D1C201C7721FFF7E4
:10CB100052FF291C201CFFF7F0FE201CFFF796FF98
:10CB2000201C7721FFF747FF77210122201CFFF708
:10CB3000B1FF201CFFF7C2FE051C201CFFF786FF7B
:10CB4000E8B238BDBC2A002070B5124C0D1C201C68
:10CB50007721FFF730FF291C201CFFF7CEFE201C99
:10CB6000FFF774FF201C7721FFF725FF77210222B2
:10CB7000201CFFF78FFF201CFFF7A0FE86B2201CB1
:10CB8000FFF79CFE3502ADB20543201CFFF75EFFA8
:10CB9000A8B270BDBC2A002010B50B1C041C0329D0
:10CBA00000D9032323702248FFF7F2FE201CD02176
:10CBB000FFF7A8FF0023552837D1AA21201CFFF733
:10CBC000C3FFAC216080201CFFF7BEFFAE21A08018
:10CBD000201CFFF7B9FFB021E080201CFFF7B4FF55
:10CBE000B2216082201CFFF7AFFFB421A082201C7D
:10CBF000FFF7AAFFB621E082201CFFF7A5FFB821AE
:10CC00002081201CFFF7A0FFBA216081201CFFF7C4
:10CC10009BFFBC21A081201CFFF796FFBE21E08175
:10CC2000201CFFF791FF01232082181C10BDC04675
:10CC3000BC2A002010B52E22F421041CFFF74CFF63
:10CC4000052001F0F6FC201CF621FFF77DFF10BD4A
:10CC500010B5041CFFF7EEFF011C201CFFF72BFF93
:10CC60000830001105F024FF014905F0ADFB10BDAF
:10CC70000000204138B50278041C92013432D2B24F
:10CC8000F421FFF729FF23780520002B06D0082088
:10CC9000012B03D00E20022B00D01A2001F0C9FC7A
:10CCA000201CF621FFF750FFF8210502201CFFF79A
:10CCB00029FF237805430820C31A281CD84038BD13
:10CCC000F8B5041CFFF7B6FF061C201CFFF7D2FFC7
:10CCD000311C051C201CFFF7EEFE23490627E65FEA
:10CCE0004318181C58430827E15F00135E43414373
:10CCF00076130914711802318026360289108919B9
:10CD0000668A227871430227E65FC90BB600B446F3
:10CD10000A26A75F78430427E45FC0126343DB124F
:10CD2000C318634493400233D817800FC3180F48C9
:10CD30009B10ED1AD0406843002803DB400005F04B
:10CD4000C9F902E005F0C6F9400003125B43084A46
:10CD500008495343084A1B14424312149B185B189A
:10CD60001B11C018F8BDC04660F0FFFF50C30000A3
:10CD7000DE0B0000CF0E000043E3FFFF084802680F
:10CD800003210A4302600749074A084B9B1A03DD47
:10CD9000043BC858D050FBDC054880470548004795
:10CDA00024050040D83B020000280020BC280020B9
:10CDB000C5CD010021C10100FEE7FEE7FEE7FEE769
:10CDC000FEE7FEE7234B10B51A78181C012A12D192
:10CDD000214B1B6819070ED1204BF0221B68E02461
:10CDE000191C1140234204D11D4B1B68134202D170
:10CDF00020E03029F8D00378012B0DD1164A1268B3
:10CE0000110709D1154A1168F0221140402903D1B8
:10CE100013490968114215D08022A323D2050121AC
:10CE2000DB00D1500F4B0020986091609A68002A77
:10CE3000FCD00DE00C490D4A116080210C4A09021A
:10CE40001160D8E7C1228021D200C9058B50E3E7E9
:10CE500010BDC046E00F00F0E40F00F0E80F00F056
:10CE6000EC0F00F0FC000040DFFF07C004050040AD
:10CE7000186C0040036800211A1CFC3291600121EB
:10CE80005961064B9168002904D1013B002BF9D16F
:10CE9000012002E000230373181C7047A1860100E3
:10CEA000084B0068C150084B021CFC32116A002973
:10CEB00004D1013B002BF7D1012001E000201062DA
:10CEC0007047C0461C050000A186010010B503682C
:10CED000002A03D0022080228240985001221A6248
:10CEE000084A1C1CFC34E068002804D1013A002ADE
:10CEF000F7D1012005E00020A322E060D2009B587A
:10CF00000B7010BDA186010010B50B4C02680B4BD5
:10CF1000A14204DC0A498160CC2149040AE0094CA1
:10CF2000A14203DC08498160802102E00749816059
:10CF3000CD21C904D15010BD8FD0030024050000BD
:10CF4000A08601007F1A060090D00300801A060018
:10CF5000F8B5E0256D00041C5619A020C025E02777
:10CF6000C005ED007F00B6003550CE19B600355033
:10CF70002068A125ED004251054A8150191C201C52
:10CF8000FFF7C2FF2268A0230521DB00D150F8BDC6
:10CF90000C050000F8B5294B0F1C1978161CC9B2F6
:10CFA000041C1A1C01290AD158788446F8B2844519
:10CFB00005D19878F3B2984201D1617317E0204906
:10CFC00008780B1C012808D148788446F8B28445BB
:10CFD00003D18878F1B2884214D01178002908D1A1
:10CFE0000123F9B213705170F1B291706373154D52
:10CFF0000FE01A78002A09D101221A70FAB25A7089
:10D00000F2B29A70022363730F4D02E00F4801F0F1
:10D0100052FC2A1C0023FC32256066712771936242
:10D02000A022D200AB500A4A391CAB500123AB50AE
:10D03000201C321C074BFFF78BFFF8BD282B00206C
:10D040002C2B00200030004000400040E033020064
:10D05000FC0F0000A086010008B503680022191C1F
:10D06000FC318A62A021C9005A5006495A50012257
:10D070005A5004210522415682568368FFF768FF03
:10D0800008BDC046FC0F0000036830B5191CFC3118
:10D090008A6A0020012A08D1044C1C5988625A610E
:10D0A0000220A50700D40120404230BDC404000086
:10D0B000F7B51F1C01920368B1224910D2009950A4
:10D0C0008021012289005A50191CFC310026CE60B3
:10D0D000051C1A607C1E019BA64213DA9919281CB4
:10D0E0000022FFF7F3FE00280AD0281CFFF7CCFF30
:10D0F000071C281CFFF7B0FF341C002F1ADA18E0B9
:10D100000136E7E71919281C0122FFF7DFFE002886
:10D1100003D0281CFFF7A0FF0CE0089B3C1C002B51
:10D1200008D029680B1CFC339A68002AFAD0002228
:10D130009A603C1C201CFEBDF8B5171C1E1CB122B9
:10D140000368D200491099508022920000259D501A
:10D150000122041C9A60B54211DA795D201CFFF7A8
:10D160009FFE002809D0201CFFF776FF201CFFF748
:10D170008BFF00280EDA051C0CE00135EBE7069B5F
:10D18000351C002B06D0201CFFF774FE002801D0B0
:10D1900001256D42281CF8BD08B5006803681B68AE
:10D1A000984708BD08B5012004F0A4FA70477047FD
:10D1B00008B5FFF7FCFFFFF7F9FF02F085F808BD9F
:10D1C000084B1B681818EFF30882904205D3064BF2
:10D1D0000C2201201A60404202E0024A1060181C32
:10D1E0007047C046242800203832002008B50028A7
:10D1F00000D1FEE701F026FBFBE74368426910B56A
:10D20000D118041C00F040F8E36A002B04D1A36994
:10D21000002B07D0984705E0A069002802D0211C08
:10D220001C31984710BD10B5041C00F035F80023E0
:10D23000A361E36210BD38B50D1C041C00F02CF88E
:10D240006561206901F0D3FB4119201C00F01CF836
:10D2500038BD08B503689B68984708BD084B10B5F2
:10D2600008330360002343608360C360041C01F043
:10D27000C3FB0449206101F055FB201C10BDC046D2
:10D280001034020053D2010008B50A1C031C011D12
:10D29000006901F073FB08BD08B5011C0431006989
:10D2A00001F088FB08BD000010B5044B041C0833D6
:10D2B0000360FFF7F1FF201C10BDC04610340200D0
:10D2C00010B5041CFFF7F0FF201C04F0DDF9201C52
:10D2D00010BD66DF704748DF70470000014B083320
:10D2E000036070472834020008B5FFF7F4FF08BD5B
:10D2F00010B5044B041C0833036004F0C5F9201C6E
:10D3000010BDC0462834020008B500F0BBFA08BDC5
:10D3100008B500F0B7FA08BD08B500F0A7FE08BDD3
:10D3200008B500F0A3FE08BD08B500F017FC08BD65
:10D3300008B501F05FF808BD08B501F05BF808BD5D
:10D3400008B502F0E3F8002008BD08B501F056FF6B
:10D35000421E9041404205230340181C08BD0000B6
:10D36000134B37B51A781D1C124C002A1DD1684684
:10D37000FFF7AFFF002813D169464B88592B0FD117
:10D380000A788B88072A03D1201C20210A4A02E050
:10D390000A4A201C202104F03BFB01232B7004E0EF
:10D3A000201C0749202204F06CFB201C3EBDC04617
:10D3B000542B0020342B0020683402007E340200FD
:10D3C0009C34020000487047302B002008B5044B05
:10D3D000044808330449054A036004F06DF908BDA8
:10D3E00028340200302B0020DDD20100002800206C
:10D3F00070DF704771DF704772DF704773DF70470F
:10D4000074DF704775DF704776DF704777DF7047EE
:10D4100078DF704779DF70477ADF70477BDF7047CE
:10D420007CDF70477DDF704786DF704787DF70479E
:10D4300088DF704702207047022070470020704745
:10D440000020704700487047FFFF0000022070472F
:10D450000220704702207047022070470220704768
:10D460000220704702207047022070470220704758
:10D470000220704702207047022070470220704748
:10D4800000231360704702207047816670471420A4
:10D49000704764207047A020800170471FB50C1CA6
:10D4A00010220021684604F0B1F968460178012392
:10D4B000A27999431A400B1C1343037023880381FC
:10D4C00063884381A3888381FFF7AEFF002800D0E3
:10D4D000032004B010BD08B5FFF7A8FF421E90411D
:10D4E000404205230340181C08BD0000F0B50D782C
:10D4F000061C87B00C1C0220012D25D04B88032D63
:10D5000006D1A03B114A9BB2934205D903201BE0F0
:10D51000203B9BB20E4AF7E7A7880E4B9F42F5D8F7
:10D5200018226846002104F071F963886A4668464B
:10D53000157013825782FFF761FF0028E6D1583635
:10D54000337801221343337007B0F0BD603F000011
:10D55000E03F0000FF3F000010B5041CFFF750FF44
:10D56000021C0320002A06D1201C58300378012118
:10D570008B430370101C10BD30B589B01C1C68466D
:10D580006B461A70013006220C9D04F01DF902AAA8
:10D59000002C07D02388138063885380A38893804E
:10D5A000E38806E03223138064235380962394801B
:10D5B0009B0004A90878D380FC2303400B70002350
:10D5C0004B609D4206D02B880B816B884B81AB88CA
:10D5D0008B8105E0FA235B000B81C8234B818D8191
:10D5E0006846FFF725FF031C0020834215D0082B57
:10D5F00012D005D80720042B0FD083420AD107E0B0
:10D600000520112B09D0064A934201D0102B01D1DD
:10D61000042002E0092000E0062009B030BDC04629
:10D6200002320000031C583310B51C78FC20204047
:10D6300018703B239A4200D01323081C191CFFF7D3
:10D64000E3FE002800D0032010BD08B50A1C0368C3
:10D65000011C9C3109881B6A984708BD08B5081C45
:10D66000FFF7DCFE002800D0032008BD08B5081C29
:10D67000FFF7D2FE002800D0032008BD08B5081C23
:10D68000111CFFF7BFFE421E90414042032303409E
:10D69000181C08BD37B568460D1C141CFFF7AAFE00
:10D6A000032300280FD1002D02D06A4613782B7077
:10D6B000002C07D06946201C0131062204F084F8B2
:10D6C000002300E0231C181C3EBD08B5081C111CDB
:10D6D000FFF7A8FE421E9041404203230340181C5E
:10D6E00008BD08B5081CFFF793FE421E904140425A
:10D6F00003230340181C08BD08B5081CFFF78AFE69
:10D7000042425041404203230340181C08BD08B563
:10D71000081CFFF77BFE0023984203D00523112845
:10D7200000D00323181C08BD024B0B6009231360B3
:10D730007047C0467835020008B5816601200A1C92
:10D74000011C01F0B5FC08BD37B5112301AD081C63
:10D750002B700C1C04F08EF9211C82B2281CFFF7E0
:10D760005FFE421E9041404203230340181C3EBD11
:10D7700013B50324A1420ED86B46684619700130D8
:10D78000111C062204F020F800206946FFF730FE45
:10D79000002800D1041C201C16BD38B50C1CC97F04
:10D7A000151C01201F2911D800290ED0D37F00227B
:10D7B000934200D02A1C201CFFF71EFE002804D133
:10D7C000208CFFF725FE002800D0032038BD000084
:10D7D0002B4BF7B5061CA02203600A360023011C60
:10D7E000C280041C03710381321C29310023137091
:10D7F00001328A42FAD180258021C901AD00201C66
:10D800000A1CF37735842C300093271C01F028FD87
:10D810003437211C3A1C53310023137001328A42E1
:10D82000FAD1221CFB7754321079FC21014015807B
:10D830001171E36523666366A366E3662367231CB1
:10D840007433303200251D7001339342FAD1231C0A
:10D850000833DD67201C80331D600421E5668C30B1
:10D8600001F038FD291C301C1F2203F0CFFFF57793
:10D87000381C291C1F2203F0C9FFFD77201CFEBDA8
:10D88000B034020038B50F4D0F4C2B68DB0717D4AE
:10D89000281C03F0FFFE002812D0201CFFF798FF81
:10D8A0000A4B012208332360231C52429C33281C5C
:10D8B0001A8003F0FEFE201C0549064A03F0FCFE18
:10D8C000201C38BDF82B0020582B002010350200FA
:10D8D000E5D80100002800209C30018070479C3072
:10D8E0000088704710B5044B041C03608C3001F0B5
:10D8F00025FD201C10BDC046B03402000220704738
:10D900000220704790DF704795DF704797DF7047C0
:10D9100042300078431E9841C0B2704788239B0074
:10D92000C15070478C239B00C15070475230007823
:10D93000431E9841C0B2704708B5081C111C1A1C40
:10D94000FFF7E2FF031C0020834204D0113B584242
:10D9500043410620C01A08BDF0B585B001AC0F1CCC
:10D96000151C00210C22201C1E1C03F04FFF0B9BDA
:10D970000A9A281C211CA36027706680E280FFF7AA
:10D98000C5FF0023984208D0112805D0044A831807
:10D9900058424341063300E00523181C05B0F0BD92
:10D9A000FCCFFFFFF7B501930368041C5B680E1CF6
:10D9B000171C9847051C0620002D2ED1019B0899A5
:10D9C00063631422E761201803F0FEFE201C09990E
:10D9D0001422203003F0F8FE231C3D33A680013BC7
:10D9E0005D70FF2201211A71301C1D7099712A1C73
:10D9F000FFF788FF061C281C002E0ED02368201C71
:10DA00009B689847112E07D0044B9E4202D00620F7
:10DA1000072E02D1042000E00520FEBD02300000E8
:10DA200013B5049C10300094059C0194FFF7BAFFD5
:10DA300016BD0000F8B5421C002383710383D37721
:10DA4000374A81630260021C3C32011C438640312C
:10DA5000137053709370D370FF220A704A70021CC7
:10DA600042321370031C041C4533BD3000215A1E82
:10DA70001D1C11701035191C00220A700131A942B9
:10DA8000FAD1191C113118330A804A808A808342E6
:10DA9000ECD1261CEE21BC3649006718351C00214C
:10DAA0002422281C03F0B2FE15225219A81B311D96
:10DAB0000023944643546A1D0023137001326245CB
:10DAC000FAD141184B822B766B83AB83EB832B848B
:10DAD0002435BD42E3D1EE225200A350F021FA22B8
:10DAE000490052006318A118002204C38B42FBD1E5
:10DAF000FC235B00BC61FE21E250872249009200BA
:10DB00006318A118002204C38B42FBD1FC214900F9
:10DB100063185C6288239B00201CE250F8BDC0465D
:10DB200090350200036810B55B68041C9847231CFD
:10DB3000423300221A70904206D088239B00E3589B
:10DB4000934201D0A088984710BD08B5FFF7EAFFBF
:10DB500008BD08B51030FFF7E5FF08BD0048704765
:10DB6000FC2B002008B50449044B081C0833103076
:10DB70000B60FFF75FFF08BDFC2B0020A035020003
:10DB8000A0DF7047A4DF7047A5DF7047A6DF7047AE
:10DB9000A8DF7047A9DF7047022070470220704756
:10DBA0000220704702207047022070470220704711
:10DBB000022070470020704773B5151C02680E1CC8
:10DBC000009394682B1C321C0149A04776BDC046C7
:10DBD000FFFF000037B5069C0020009020886D46AE
:10DBE0002880081C111C6A460193FFF7CDFF032310
:10DBF000002802D12B882380031C181C3EBD000086
:10DC000073B5151C06AA0E1C1178026800930191C9
:10DC100014692B1C321C0149A04776BDFFFF000090
:10DC2000F8B503680F1C161C9D69041CFFF72AFE3B
:10DC3000FFF755FE3A1C011C331C201CA847F8BDF9
:10DC400038B5074B041C03604068002804D0C56940
:10DC500003F01AFD281CF8E76060201C38BDC046A0
:10DC6000D035020010B5041CFFF7EAFF201C03F0BA
:10DC70000BFD201C10BD000038B5074B041C0360D1
:10DC80004068002804D0C56903F0FEFC281CF8E7B2
:10DC90006060201C38BDC046E035020010B5041C91
:10DCA000FFF7EAFF201C03F0EFFC201C10BD000072
:10DCB00038B5074B041C03604068002804D0C569D0
:10DCC00003F0E2FC281CF8E76060201C38BDC04669
:10DCD000F035020010B5041CFFF7EAFF201C03F02A
:10DCE000D3FC201C10BD0000084B10B5041C0360C1
:10DCF0001830FFF7DDFF201C1030FFF7BDFF201CA0
:10DD00000830FFF79DFF201C10BDC0460036020002
:10DD1000F0B5D48B42791E1C85B00023934218D2F3
:10DD2000DD0045197C352D88A54210D10F33DB006D
:10DD3000C3186C461A890E3402232380036803AD8E
:10DD400000949F682B1CB847021E04D00DE00133DD
:10DD5000E4E7042009E023880620022B05D12B8864
:10DD6000101C9A0701D00123337005B0F0BD0000EC
:10DD7000F0B589B001930FAB141C1F780D1C061C65
:10DD8000FFF780FDFFF7ABFD002302930EAB1B886E
:10DD90006A461381019B0393002F13D1737900E02E
:10DDA00001379F420ED2FA00B2187C321288A2428A
:10DDB000F6D10A37BF00F619736830220133DB7FD2
:10DDC000134207D1281C211C02AAFFF7DBFE002802
:10DDD00026D128E0A842F5D0102213405A425341E0
:10DDE00004A901338B70019A00238B800EAB0C8049
:10DDF000CA608B60FFF7CAFE80B2002813D00828E3
:10DE000010D00A4B98420DD011280BD0084B9842E5
:10DE100008D0281C211C02AAFFF7B4FE002801D05C
:10DE2000032000E0052009B0F0BDC046033000002B
:10DE30000134000010B50278002A09D10C78131CB7
:10DE4000002C13D1428A4B8AD31A5A4253410CE018
:10DE50000023012A0AD10A78012A07D101300131B1
:10DE6000102203F0A2FC43424341DBB2181C10BD58
:10DE7000F0B5051C97B0081C0C9101F071FD6C46C3
:10DE80003E34109010A90120221CFFF779FE0028D3
:10DE900001D00320BCE023880C990B908B830C9A53
:10DEA0000B98137D834213D90C9A0B9892698300C7
:10DEB0009C586169002910D1238B002B0DD1631C64
:10DEC000DB7F022B09D10B9B0133DBB20B93E6E71F
:10DED0002B79002001332B719AE0201C01F040FDCA
:10DEE000002610900D960A96231C28331B78B34207
:10DEF0001AD9626AB3009F58002311AA137011A99E
:10DF0000CA18002001335070102BF8D1414B381C37
:10DF10004B82FFF78FFF002803D07B69BF8B0A93EA
:10DF20000D970136F6B2DFE76069631CDA7FA31C48
:10DF3000DB7F0090218B0D980191618B0490029101
:10DF40000A9900200391211C293109780591211C8F
:10DF50002A310978069169790F31C90069180431AD
:10DF6000079110A901F04EFD002892D16B79071C92
:10DF70001A1C0A3292000F33AA18DB005460EB1807
:10DF80009B88E3836B7901336B71231C28331B78E7
:10DF9000BB4298D9616ABB005E5811AA0023137076
:10DFA00011A9CA18002001335070102BF8D1194B59
:10DFB000301C4B82FFF73EFF0A90002825D1301C11
:10DFC00001F0CEFC718B10909E2040007269338B63
:10DFD0000091295C0A989C31490069180631019129
:10DFE00010A901F0BDFD002800D052E79E21490094
:10DFF0006A5C531CDBB246326B5492009C33AA1805
:10E000005B005660EB18DB88F3837B1CDFB2BCE758
:10E0100017B0F0BD0129000038B544690D1C002C73
:10E0200011D02368002B02D0281C984709E06068B3
:10E03000002806D0A369002B03D0211C08312A1C1C
:10E040009847E469EBE738BD08B5031C101C0429A8
:10E0500005D0052905D0032907D11B6A02E05B6AB8
:10E0600000E09B6A002B00D0984708BD70B52E4E8B
:10E07000012533682D4C1D4053D1301C03F00AFBA1
:10E0800000284ED02A4B2571A3602A4B657123616D
:10E09000294BE560A361294B656108332360E56185
:10E0A00025626562A5622B1CE21800250433D56247
:10E0B000502BF9D160197C3000210822083503F07B
:10E0C000A5FBA02DF6D1221C0023FC321362536263
:10E0D0009362D362136353639363D3639E225200AC
:10E0E000A3549F225200A352A0225200A352A12265
:10E0F0005200A352A2225200A352A3225200A352C2
:10E10000A4225200A352A5225200A352A6225200DA
:10E11000A352301C03F0CDFA201C0949094A03F030
:10E12000CBFA201C70BDC046802F0020302E00206E
:10E13000D0350200E0350200F03502002036020042
:10E14000E9DC010000280020F0B50B8891B00190B7
:10E150000C1C512B4CD00AD8012B2AD0502B00D0AC
:10E1600029E1C888019902904A79002311E0522BD5
:10E1700037D0532B00D01EE1C8880521029044E01F
:10E180000198D9004118803109880298814203D052
:10E1900001339342F4D30AE001990A339B00CB1870
:10E1A0005A683021531CDB7F0B4200D0EDE0022186
:10E1B0002BE00D7A0199CC68002C00D1FBE023689C
:10E1C000002B02D0281C984709E06068002806D080
:10E1D000A369002B03D0211C08312A1C9847E4694D
:10E1E000EAE7888800210A1C0B1CFFF7D3FCE2E059
:10E1F0008B79012B06D0022B00D0DCE00B890721A4
:10E20000029302E00A8906210292019800274379CD
:10E210009F4200D3CFE00198FA0082187C32128826
:10E220000298824211D1062963D007290FD0022912
:10E2300000D0A5E0029A0CA90A80237A8B70A38BE8
:10E240008B80E38B2034CB804EE00137E0E708ADD4
:10E2500000211022281C03F0D9FA029B201C2B80DD
:10E26000E38B22306B80238C00210390A860102266
:10E270000CA8AB800A3703F0C9FA0223019A9F4029
:10E28000D7197E680CA90B70331C2A331A78002327
:10E290009A4215D04C363368002B02D0281C984780
:10E2A00009E07068002806D0B369002B03D0311C48
:10E2B000083108AA9847F669002EECD108AB9B8973
:10E2C000684683860CA9A088FFF762FC69468B8E9E
:10E2D000002B70D1029A05A90A80A37A8B70E38B78
:10E2E0008B80238C039CCB808C600198FFF794FE7D
:10E2F00061E008AD00211022281C03F087FA029883
:10E300000CAE2880A38B00211022301C6B800A37B2
:10E3100003F07CFA0199BF00CF197F6801233370A5
:10E320003B1C29331A7800239A4214D02C373B68BF
:10E33000002B02D0281C984709E07868002806D0F6
:10E34000BB69002B03D0391C08312A1C9847FF6990
:10E35000002FECD1AB89B380AB89002B0BD1AB681C
:10E36000002B08D0B27901210A43B2716A88328148
:10E37000AA88F3607281A088311CFFF709FC1AE0BB
:10E380000198029AFFF760FE15E0A11CC87F0134D6
:10E39000E17F000208439C0602D50321840707D4CD
:10E3A0000421DC0604D501210840414241410331EA
:10E3B000D28B0198E6E711B0F0BD416070478160F3
:10E3C0007047C1607047016170474161704708B58F
:10E3D000081C111C1A1C029B01F004FA08BD08B5A8
:10E3E000081C111C01F078FA08BD08B501F060FAAC
:10E3F00008BD000070B50B4E012533680A4C1D4066
:10E400000ED1301C03F046F9002809D0074B656097
:10E41000A560E56025616561301C236003F049F962
:10E42000201C70BD842F0020882F00205036020051
:10E43000FF23132801D8024B1B5C58B27047C0461B
:10E4400070360200F8B5061C0C1C8F180025BC4263
:10E4500007D0336821781B68301C984701342D1889
:10E46000F5E7281CF8BD38B5051C0C1C081E07D0A4
:10E4700003F000FB2B68021C5B68281C211C9847DA
:10E4800038BD08B5FFF7EFFF08BD08B503681B6886
:10E49000984708BD38B50D21041CFFF7F6FF0A2187
:10E4A000051C201CFFF7F1FF401938BD38B5041CCE
:10E4B000FFF7D9FF051C201CFFF7ECFF281838BD1B
:10E4C000F0B58BB0151C09AB0022071C0E1C1A708E
:10E4D000012D00D80A256C462334301C291C03F07A
:10E4E000F9FD031C6B43F61AF6B2211C092E01D864
:10E4F000303600E03736F6B22670013C002801D0F5
:10E50000061CEAE7381CFFF7AEFF0BB0F0BDF8B50C
:10E51000041C0D1C161E04D10368C9B21B68984761
:10E5200012E00A2A0DD100290ADA2D21FFF7ADFFEA
:10E530006942071C321C201CFFF7C2FFC01903E010
:10E5400000E0D2B2FFF7BCFFF8BD38B5041CFFF7FE
:10E55000DEFF051C201CFFF79DFF281838BD0000BA
:10E5600010B5FFF765FF041C601C04D12248234945
:10E570005F2200F04BF9631EDBB2062B3AD8204B2A
:10E58000012219681F4B89001B68101C5B0119438D
:10E59000022319431C4B1B681B041943631C98403E
:10E5A00003020C1C1C431949194BC2205C5080000B
:10E5B00054421C50A020C0001A501A608022D20081
:10E5C0009A58D007FAD4A1221148D2008058114A93
:10E5D00012780A2A07D0092A03D80A24A21AD0409E
:10E5E00001E00A3A9040A022D20000249C505A58E0
:10E5F0005A5000E0084810BD843602009B360200E5
:10E600003028002028280020A02F0020040500002A
:10E61000007000402C280020FFFF000038B5041CCB
:10E6200000F08EFC051C00F08BFC401BA042FAD3CE
:10E6300038BD08B5FA239B005843FFF7EFFF08BD2C
:10E6400030B587B00C1CFFF7F3FE051C431C04D14A
:10E650000D480E490F2200F0D9F86B461D70012CB1
:10E6600006D0002C04D0022C0BD10021032501E0A0
:10E67000211C0025684600F0FBF96846291C00F0C3
:10E68000F1F907B030BDC046843602001E370200E3
:10E6900038B50D1CFFF7CCFE041C431C04D10948FF
:10E6A0000949232200F0B2F80122A023A240DB0591
:10E6B000141C002D02D0A121C90000E003495C50C8
:10E6C00038BDC046843602001E3702000C0500002B
:10E6D00001207047054B1A1C4032107841331B78DB
:10E6E0004030C01A3F2318407047C046B42F002066
:10E6F000084A111C101C413140300B7800789842B8
:10E7000005D0D05C01333F2213400B7001E00120A3
:10E7100040427047B42F0020064B1A1C191C41328E
:10E72000403112780978914201D0985C01E00120D3
:10E7300040427047B42F002007B5034B6846009352
:10E7400000F0FEFA0EBDC0460020004007B5044BA5
:10E750000093684600F002FB0028FAD007BDC046CF
:10E760000020004030B5074B3F211A1C403214787E
:10E77000651C29401D1C41352D788D4201D018554E
:10E78000117030BDB42F002000234360FA239B009A
:10E790008360024B083303607047C046A83702000D
:10E7A00073B5101C1E1C0C1CFFF742FE051C301C10
:10E7B000FFF73EFE0B4B2A1C011C6846009300F03D
:10E7C000E9F901235B421A1C6846002100F0CEFAE9
:10E7D0006846211C00F0BAF968460021012200F0C9
:10E7E00069FA73BD0020004008B500220123FFF73D
:10E7F000D7FF08BD08B5034801F02EFD0248FFF71A
:10E80000C3FF08BDB42F0020A42F002008B500F0DE
:10E8100019F808BD38B50023C356041C0D1C01337C
:10E8200004D1064806492422FFF7F0FF6368002D53
:10E8300001D0E26800E02269136038BDD0370200E1
:10E84000E837020000B599B06846132100F065F87A
:10E8500006A8132100F061F80CA8132100F05DF860
:10E8600012A8132100F059F868460121FFF7D2FFE2
:10E8700006A80021FFF7CEFF0CA80021FFF7CAFF72
:10E8800012A80121FFF7C6FF962000F0CCF86846D9
:10E890000021FFF7BFFF06A80121FFF7BBFF0CA86F
:10E8A0000121FFF7B7FF12A80021FFF7B3FF962061
:10E8B00000F0B9F8D8E70FB4012008B502F01AFF4C
:10E8C00038B50023C356041C0D1C013304D106487F
:10E8D00006492422FFF79AFF6368002D01D0E26801
:10E8E00000E02269136038BDD0370200E83702002B
:10E8F00070B50D1C041C161C00F09CF801350BD0E3
:10E90000201C311CFFF7DCFF201C012100F0B0F8B7
:10E91000201C002100F0A6F870BD08B50022FFF70A
:10E92000E7FF08BD38B50368041C1B680D1C984739
:10E9300063681D6038BD38B50368041CDB68984700
:10E9400063685A682368002A02D19B68984714E0DC
:10E950005B681568984763682D1A002D08DC5A68B3
:10E96000916859601B68002BEAD050689847E7E728
:10E970005B68226818681369984738BDF8B50D1CA4
:10E9800072B64B600A60416800234C68002C05D0C9
:10E990002768D61B02D4231CA468F7E7002B05D1F7
:10E9A00003684D601B69101C984700E09D60AC60D7
:10E9B00062B6F8BD08B572B6426853688B420FD193
:10E9C0009B6853600268002B02D1936898470CE063
:10E9D00018681369984708E09A688A4203D0131CA4
:10E9E000002BF9D101E08968996062B608BD08B5CD
:10E9F00003685B68984708BD00487047B03802005C
:10EA000008B50248FFF797FF08BDC046B0380200BE
:10EA100038B5041C00F094FA051C00F091FA401B74
:10EA2000A042FAD338BD08B5FA239B005843FFF73C
:10EA3000EFFF08BD01704B1C0AD001238B404360DF
:10EA4000044BC360044B0361044B4361044B83607C
:10EA50007047C046080500500C05005010050050D6
:10EA60001405005008B5007840B200F01FF808BD4A
:10EA700038B50023C356051C0C1C013304D10948CA
:10EA800009492A22FFF7C2FE002C01D0012C07D130
:10EA90000022AA56A023C132FF329200DB05D450D7
:10EAA00038BDC046D0370200B838020038B5041C63
:10EAB0000D1C431C04D10A480A491A22FFF7A6FE7E
:10EAC000A023A000DB05C018E023DB00C2580C2106
:10EAD0008A43C250C258AD001543C55038BDC04628
:10EAE000D537020067390200114A00211165114A29
:10EAF000114B1188114A9950114A1178002904D0FC
:10EB000010490888A821C90058505178002903D01D
:10EB10000C4948880C4958509278002A04D0094A78
:10EB20009188A922D200995001221A607047C046EC
:10EB3000FCA000403428002000A000404C0500004C
:10EB4000003000203628002044050000962210B531
:10EB50000123D200914203DC9E210268C90212E027
:10EB60000A4ADC00A458A14207DA013BDB00D218B4
:10EB700001685268064BCA5007E00133112BEFD1F0
:10EB8000802102684905024BD15010BD143A0200A1
:10EB900024050000F8B5284B284C0360A023DB05B2
:10EBA0000F1C161C01211A59B9400A431A51195950
:10EBB000802252000A431A511A590121B1408A4356
:10EBC0001A5119591E4A051C0A4096211A518901E9
:10EBD000FFF7BCFF2B681B4900225A50A021C90037
:10EBE00004205850012199601960191CFC31CA6039
:10EBF00015495A506A60A1220821D2009950134A3F
:10EC00000A219F50A222D20099501E517B1C03D092
:10EC1000381C0321FFF74AFF711C03D0301C03216D
:10EC2000FFF744FF0A4B01221A60291C08220948F9
:10EC300002F0CAFDF8BDC0460020004014050000E7
:10EC4000FFFBFFFF6C0500001C0500000C05000029
:10EC50000430002010300020124AC1239B00D158FC
:10EC600010B5080603D51049096A002911D1D358F7
:10EC70005A0716D50C4BDA68002A12D00024DC6043
:10EC8000084AA323DB00D058C0B2FFF76BFD211C5C
:10EC900000E00121054B1868002802D0044B1B68D6
:10ECA000984710BD00200040FC2000400C300020A0
:10ECB0000830002030B503681E4C181944426041EA
:10ECC0004000002A1BD0002903D0012905D1802152
:10ECD00000E00421C12292009950174BC0229200FB
:10ECE00040B29C58C100FF258D40AC43C0258D40EB
:10ECF000291C21439950012282401A6018E0002902
:10ED000008D0012914D1C222920080249C509B5823
:10ED10009B0806E0C2229200042199509B580121D1
:10ED2000DB09994304D001238340181C034BD867A7
:10ED300030BDC04600E0FFBF00E100E004E100E0BC
:10ED400003681A1CFC32106A0128FAD100201062F4
:10ED5000014AC9B2995070471C0500000368FC3392
:10ED6000186A01384342584170470000F7B50E1C3D
:10ED700001930223041C0D1C171C9E43012E13D16A
:10ED80001F4BA022D205D158301CB8400143D150AE
:10ED9000381C0321FFF78AFE2368A122D2009F506E
:10EDA000184A99580E439E50AB1E012B16D8144B8F
:10EDB000A022019ED2050125D158281CB0408143D4
:10EDC000D150301C0321FFF771FE2368A222D2002C
:10EDD0009E500C4A99580D439D500FE0002D0DD1C7
:10EDE00023680122A1215242C9005A50A221C90020
:10EDF0005A50044A0120995881439950F7BDC046A2
:10EE0000140500006C0500000A490B4A88680B4B8A
:10EE1000002808D01868013018600020886002209F
:10EE2000D2218140505006491B6852581806190AD1
:10EE300010437047FC100140001001401C300020BE
:10EE4000040500002F23C046C046C046C046C04649
:10EE5000C046C046C046C046C046C046C046C04682
:10EE6000C046013B002BEED170470000174B70B538
:10EE70009A68002A0AD0164A0220116801311160EE
:10EE800000229A601349D222824088505B6C114C58
:10EE9000002B19D0104D2B78002B15D00F4B1E686E
:10EEA000FFF7B2FF361A002E0EDC084B0021596422
:10EEB000D22280235B029200A3502970C2218900D4
:10EEC0006350A350FFF79CFD70BDC046FC1001408D
:10EED0001C3000200010014021300020183000209C
:10EEE00038B5124C2278002A1FD1114BA121C9003C
:10EEF0005A500222D22191405A50C12191405A5079
:10EF00000C4AC421890055580B482840C0252D02C1
:10EF1000284350508021C020890240000125115013
:10EF200011601D60FFF78EFF257038BD2030002076
:10EF30000010014000E100E0FF00FFFF00000000C2
:10EF400008B50B4B1B78002B01D1FFF7C9FFFFF76A
:10EF50005BFF064B044A03F0C7F94904C00B0843A2
:10EF600008BDC046C046C04640420F000000000039
:10EF700020300020C046C0462F4B70B51B78061CC1
:10EF8000002B01D1FFF7ACFFFFF73EFF254B244AD2
:10EF900003F0AAF94B04C00B002400251843CD0B45
:10EFA0000023321CA4185D4180231B06984205D91A
:10EFB000002E03DB1C4A1D4BA4185D41610CEB03C2
:10EFC0000B43E2031A481B4980185941154B144A58
:10EFD00003F06AF9194D041C2B78194E002B02D04E
:10EFE000336898421BD0FFF70FFF201A022802DC7B
:10EFF000FFF70AFF841C2102124BA822D200090A43
:10F0000099502A783460002A09D101222A70D2212D
:10F010008022520289005A50C12189005A5070BD85
:10F0200040420F000000000000000000010000004E
:10F030003F420F000000000020300020213000205F
:10F040001830002000100140074B1A78002A0AD01F
:10F05000064A8021C220490280001150D22080003F
:10F06000115000221A70704721300020001001401A
:10F07000024B00229A605A647047C046FC1001405F
:10F080002EDF704732DF704733DF70474CDF704749
:10F0900008B5054B01201A7850401870034B1B68C7
:10F0A000002B00D0984708BD2830002024300020D5
:10F0B00038B50C4B051C15200C1C1A60FFF7E2FF3D
:10F0C00000280ED11520291CFFF7DEFF002808D1EB
:10F0D0001520FFF7D5FF002803D10320211CFFF7DF
:10F0E000D5FF38BD243000202EDF704751DF704738
:10F0F00010DF704711DF704761DF704708B5081CEB
:10F10000111C00F049FA08BDF0B5254B85B01B78FD
:10F11000002B42D0234E244F3268544254413A6867
:10F12000E4B255425541EDB2002C34D103A8FFF7AB
:10F13000DDFF05280AD0002804D0211C221C00F085
:10F140002DFA04E003983368984700E00124002D6D
:10F150001ED1164B03A91B880B80154B1B68181C6E
:10F160000193FFF7C9FF051E052D0BD0002805D020
:10F1700000210A1C00F012FA002504E001983A6808
:10F18000904700E00125002CCED0002DCCD004E02B
:10F19000002C02D1C8E7002DDBD005B0F0BDC04681
:10F1A0002930002030300020343000202A30002068
:10F1B0002C30002038B5041C0720002913D08D07FF
:10F1C00011D1094801600949201C0A80084A0949EF
:10F1D0001360FFF78DFF002805D1074B0122162091
:10F1E0001A70FFF781FF38BD2C3000202A30002034
:10F1F00038300020FDF001002930002008B5FFF76D
:10F2000079FF021C531E9A41014BD2B21A7008BDFD
:10F2100029300020002803D0024B1860002000E0B5
:10F220000E20704734300020002803D0024B1860B5
:10F23000002000E00E2070473030002008B5074B5A
:10F240001B68002B07D09847002806D000210A1C15
:10F2500000F0A4F901E0FFF757FF08BD38300020A7
:10F26000F7B5FA260093B60008AB041C1B78301CD7
:10F2700048431449171C019302F02CFF85B2301C3F
:10F28000258078430F4902F025FF009B80B2A380C0
:10F29000019B6080A371032D01D804232380228861
:10F2A0008023DB019A4200D92380032801D804225D
:10F2B000628062889A4202D98023DB016380201C2D
:10F2C000FEBDC0467102000008B5FDF731F9FDF73B
:10F2D00003FAFCE738B50E4B041C08330360002327
:10F2E0004360A160C360FE230D1C5B05880099424A
:10F2F00001D90120404202F0AFF9013D031C013D5C
:10F30000AA1C02D0002204C3F9E76060201C38BDAB
:10F31000A03A020070B5041C0025E3689D4209DA9A
:10F320006268AE00905902F0AFF962680023935111
:10F330000135F2E70023E36070BD000010B5054B16
:10F34000041C08330360FFF7E5FF606802F09CF9D6
:10F35000201C10BDA03A020010B5041CFFF7EEFF00
:10F36000201C02F091F9201C10BD38B5051C0024AA
:10F37000EB689C4211DA6A68A30099584B69002B2C
:10F3800004D10B68002B06D0984704E008680028D9
:10F3900001D0043198470134EAE738BD70DF704787
:10F3A00071DF704760DF704708B501F031FE08BDBE
:10F3B000F0B5041C8BB001F0B5FA201C00F0FEF88B
:10F3C000208810380B2800D996E002F079FE063725
:10F3D000959595529595955C9565A688FEF752FA98
:10F3E000311CFEF779FA201C16300190FEF74AFA1C
:10F3F000051C2B1C627B58331F7800920222174396
:10F40000207DA1791F702B6E002B75D06A46009B62
:10F410009074019893761682D1740990E11D05A825
:10F42000062202F0D1F96846211C0E3106221B305B
:10F4300002F0CAF92B6E04A898475DE0A788FEF792
:10F4400021FA3149FEF748FAA679FEF71BFA031CA8
:10F4500058331A7802218A431A70436E051C002B18
:10F4600002D0381C311C9847281C8C30FFF77DFFD8
:10F4700042E0FEF7BFFF4369A288A11D002B3BD0ED
:10F48000101C984738E0FEF7FDF9C36DA279002BF8
:10F4900032D0101C98472FE0FEF7F4F9A37B6946A1
:10F4A0005A07051C900FDA08677B08710A7204A8D6
:10F4B000E11D0622DE0702F087F96B461879197AFA
:10F4C000F60F9F75DE7518765976231C0F33079358
:10F4D0006C352B68002B02D004A8984709E06868B7
:10F4E000002806D0AB69002B03D0291C083104AAE0
:10F4F0009847ED69002DECD1FEF7B8FD211CFEF711
:10F5000023FE0BB0F0BDC046FFFF00001FB5082072
:10F510001C4948220023FFF74DFE00280AD080B284
:10F52000002807D1BFF34F8F174A184BDA60BFF39B
:10F530004F8FFEE7002302A802934360012303706C
:10F54000FFF730FF002801D0072417E06846FFF7D7
:10F5500027FF0028F8D16946FFF720FF0028F3D1E4
:10F560000B48FFF757FE84B2002C07D10948FFF77C
:10F570005BFE84B2002C01D100F0A8F8201C04B07E
:10F5800010BDC0463C3000200400FA0500ED00E04C
:10F59000B1F30100A9F301007047000080B2002818
:10F5A00007D1BFF34F8F034A034BDA60BFF34F8F8E
:10F5B000FEE770470400FA0500ED00E07FB5041C8B
:10F5C000FEF7CCFA051C031C2088103530380828BB
:10F5D0006AD802F075FD0569122D213D694A59006E
:10F5E000E288002A05D1211C0C31281C00F0C4FC43
:10F5F0005AE01B69281C9B6855E0E288002A05D167
:10F60000211C0C31281C00F049FD4DE052331A78C2
:10F61000022A49D1032219E01B69281C5B6898471C
:10F62000002841D0211C0C31281C00F0A3FD3BE038
:10F63000E288002A05D1211C0C31281C00F016FBA1
:10F6400032E052331A78042A2ED101221A702BE0AC
:10F65000A38901AE3380E3897380238A1234B38097
:10F660000394FEF77BFA43681AE0A38901AE338066
:10F67000A37BB370238AB380638A1434F38003942A
:10F68000FEF76CFA83680BE0A38901AE3380A37B9D
:10F69000B370238A1234B3800394FEF75FFAC36811
:10F6A000002B01D0301C9847281C00F043FB281C7D
:10F6B00000F008FC281C00F095FB7FBD77DF704749
:10F6C00078DF70477ADF70477CDF70471FB5002313
:10F6D00002AC039328232380C8235B006380E3806C
:10F6E00001A811230C4905220370FFF7EDFF80B23A
:10F6F00000280FD180208000FFF7E2FF80B20028B1
:10F7000008D1201CFFF7DEFF80B2002802D1FFF7EE
:10F71000D5FF80B204B010BDB03A020068DF704778
:10F7200070B50B780C1C142B1BD002D8132B05D0F2
:10F7300053E0152B1FD0222B46D04EE04D68FEF72C
:10F7400059FE6368061C1888AB787468D9079A0755
:10F75000C90FDB06C9B2D20F5B0F002C3DD0A0470A
:10F760003BE0FEF747FE63681A8899788368002BB0
:10F7700033D0101C26E04B689A7813091207120F39
:10F78000012A02D0022A08D010E0013BDBB200259A
:10F79000022B0ED8124AD55C0BE0012B08D0023B9D
:10F7A0005A42534105255B421D4002E0002500E01E
:10F7B0000425FEF71FFE63681A88C368002B0CD06F
:10F7C000101C291C984708E0FEF714FE63681A888D
:10F7D0000369002B01D0101C9847002070BDC04663
:10F7E000B63A0200F0B51C1C2E4B87B001921A7875
:10F7F000071C00200E1C824252D101F091FC00280F
:10F8000048D1002C0FD0222003A90394FFF786FFD4
:10F81000002808D0082804D0113847427841043025
:10F820003EE006203CE000236A4602A8137200F086
:10F8300047FF011E2ED103AC0C22201C01F0E6FF75
:10F840001022194BA271E271227A012503932A43F7
:10F8500002231A4304210A4361792E40A9432272EC
:10F860002F4072000E1C3E4323719E43019B0727CD
:10F8700016433B401C229B0096431E430B48211C11
:10F88000667100F08DFF031E06D0042807D0062005
:10F89000082B05D0092003E0024A157000E0381C4F
:10F8A00007B0F0BD8530002021F701008430002032
:10F8B00008B5084800F0E6FF0023984207D0042866
:10F8C00004D00623082802D0092300E00723181CCF
:10F8D00008BDC0468430002073B500230193104B4F
:10F8E00001AD1B780E1C291C2B7001F0D9F9041EE8
:10F8F00004D00923052810D104230EE0281C311C54
:10F9000000F088FF231C002807D0042804D0062319
:10F91000082802D0092300E00723181C76BDC04642
:10F9200084300020A2DF7047A3DF704763DF704799
:10F9300010B586B06C46073400232370C11AC97B0A
:10F9400002AA99540133102BF8D1101C211CFFF787
:10F95000EDFF0023984200D12378181C06B010BD9B
:10F96000F0B5418A037885B0041C01910126002B73
:10F970001CD083190093214B00221D68AA4220D07D
:10F98000112151431E4F0023C9198C46981E01288E
:10F9900005D96146CE5C0099C85C86420FD101331F
:10F9A000102BF3D111235A43BF183E7C6B469E7334
:10F9B00003AB588801990004084305B0F0BD01323B
:10F9C000DCE70098FFF7B4FF2378071C061C002B28
:10F9D00001D112340094082DE8D011246C43084B57
:10F9E00000991C19201C102201F0EEFE0023A370C8
:10F9F000E370024B013527741D60D7E78830002083
:10FA00008C300020F0B597B001931CAB049001CB73
:10FA100030271B88059102931EAB1B88151C03938E
:10FA200020AB1E8821AB1B781740069322AB1B78B6
:10FA30000793002F0DD02221022369440B7001236C
:10FA4000191C1022114308A80B1C017021216944C4
:10FA50000B700FAC201C00211C2201F0D7FE0023EC
:10FA600025709F4200D008AB6361002E05D01F9A1D
:10FA7000002A02D062602681668109AC00230699C3
:10FA80000798238001231940C90003401A010398F5
:10FA9000CBB2029913430A1A511E8A4102210B4329
:10FAA0001343A37032231D421FD00198013804284C
:10FAB0001BD822780F239A4302F002FB0305070CA0
:10FAC0001100012107E001210AE001210A4313404E
:10FAD000302208E002210A431340102203E00221F1
:10FAE0000A4313402022134323700C231D421FD0CE
:10FAF0000198013804281BD862780F239A4302F03A
:10FB0000DFFA0305070C1100012107E001210AE0DB
:10FB100001210A431340302208E002210A43134026
:10FB2000102203E002210A43134020221343637092
:10FB30000AAD281C0021142201F068FE0599029AE2
:10FB4000039B1C980A912A81AB8128610FA9049814
:10FB50002A1C239B6C60FFF7E5FE80B217B0F0BD56
:10FB6000F0B589B01D1C0EAB1E880192AA1B0F1C9C
:10FB7000531E9A410221012300900A436846191C32
:10FB80008272102203AC1143017241721422201CB4
:10FB9000002101F03BFE019A02A9616022610098F8
:10FBA000211C0F9A03972581A681FFF7BDFE80B225
:10FBB00009B0F0BD90DF704792DF704793DF704768
:10FBC00094DF7047036810B5021C002B0BD0591E40
:10FBD000406811609900002304338B4205D0D4188B
:10FBE0006468D450F8E70120404210BD036810B5A6
:10FBF000021C002B0BD0591E406811609900002395
:10FC000004338B4205D0D4186468D450F8E701203F
:10FC1000404210BD73B581800025041C3F30057043
:10FC2000FF260138C670057001AE022042342070F4
:10FC3000081C311C73803280FFF7BEFF031C281C98
:10FC4000AB420FD02278022A01D103222270112B5D
:10FC500007D0054A934202D00620102B02D104207F
:10FC600000E0052076BDC04602300000F0B5051C5E
:10FC700085B0019142352B78041C0026042B52D10B
:10FC8000019A062713889E4221D27743019A274B77
:10FC9000D719BA889A4209D1231C41331B782420F2
:10FCA00058432018BC30798801F0D2FCBA88204B28
:10FCB0009A4209D1231C41331B7824205843201831
:10FCC000BC30798801F0C6FC0136F6B2D8E7013BBA
:10FCD0005F43231CD7194133211C7A881B783F319D
:10FCE00009780132013392B28B4208D1231C403390
:10FCF0001B7818214B434033E3185B8B04E024212D
:10FD00004B43B833E318DB8B9A4207D203A90A802E
:10FD10004B80A088FFF752FF002804D02B78042BDB
:10FD200001D101232B7005B0F0BDC04601290000B0
:10FD300002290000F7B5061C42363378041C022B5A
:10FD40004ED1271C231C3E373F333D781B78AB42F6
:10FD500027D9631CDB7F002B0BD124236B43E318D3
:10FD6000BC331A79002A15D1628EDB8A9A4211D1EE
:10FD700013E0012B0ED124216943B83161180B7AAD
:10FD8000012B07D1201C09312130102201F00DFD7B
:10FD9000002802D001353D70D3E7231C41331D708C
:10FDA000F8E72423013D5D43231C40331B781821D1
:10FDB0004B43B83565192A8C4033E31801325B8B0D
:10FDC00092B29A420AD201A90A804B80A088FFF71A
:10FDD000F3FE002804D03378022B01D103233370C3
:10FDE000F7BD000070B5041C231C42331B78012BA7
:10FDF00065D1261C231C3C363D3335781B78AB423D
:10FE00002ED9A379002B0CD118236B434033E31870
:10FE1000191D1B79002B1FD1228B4B8A9A421BD1B3
:10FE20000FE0012B18D118216943403161180B797B
:10FE3000012B11D1E01D0531102201F0B6FC002884
:10FE40000AD1E369002B07D018206843221C4032F6
:10FE50002018157044309847337801333370C3E766
:10FE6000013D1822554340356519698B144B994261
:10FE70001FD1636B002B18D0211C40310878FF285C
:10FE800013D001310978FF290AD1131C4343E31829
:10FE900044339A8AA188DB8A201CFFF7BBFE0EE060
:10FEA000242048432018BC309847201CFDF73AFE18
:10FEB00005E0A0880022FFF77DFE0028F5D170BD87
:10FEC000FFFF000037B5041C42342378032B26D1F2
:10FED00004232370031C40331B78FF2B1DD0021C0E
:10FEE00041321278FF2A18D024214A4318256B4347
:10FEF000B8328218128C4033C31801325B8B01A9CF
:10FF000092B20A804B809A4207D28088FFF756FE51
:10FF1000002804D02378042B01D10123237037BD9E
:10FF200073B5051C2B68AC69002B1CD0231C423315
:10FF300005221A706E680F490422684601F044FCDD
:10FF400018237343E3184433998ADB8A01AA11808A
:10FF50005380A0886946FFF733FE002809D0281C8B
:10FF6000FFF730FEDEE742342378052B01D1012371
:10FF7000237073BDBA3A0200F0B5031C3D331F78FD
:10FF80000A8889B0BA18D2B2041C052A00D9052201
:10FF90001A70EE2300225B00E250EE2301225B0088
:10FFA000E31852425A609A60DA601A615A61182363
:10FFB0007B43E3181E1C0D1C5836231C3D331B7855
:10FFC0009F4230D22B79002B0ED1EE225200A35843
:10FFD000591C9B00E318DD33FF33A1505F60EA88B2
:10FFE0002B89328073801AE06888002303A900906F
:10FFF0000B7003A9C818002201334270102BF8D1EE
:020000022000DC
:10000000E8882A89009B0090301C01921438142241
:100010004B8201F0D9FB009B01983380708001373F
:1000200008351836C9E7EE235B00E358002B04D0EF
:10003000EE225200A018FFF773FF09B0F0BD0000D8
:1000400073B5051C2B686C6A002B1DD01249231C4C
:10005000423306221A706E6804310422684601F0A9
:10006000B3FB24235E43B836A619F38B01AA138091
:1000700001335380A0886946FFF7A2FD002809D00C
:10008000281CFFF7B3FDDDE742342378062B01D1AE
:100090000223237073BDC046BA3A0200F0B5031CB8
:1000A0003F33041C0A88187889B08218D2B20F1C1A
:1000B0000790082A00D908221A70FC235B0000264A
:1000C000E650FC2301225B00E318524207995A6074
:1000D0009A60DA601A615A6124234B43BC33E318F7
:1000E0003D1C06930799221C711805913F32127826
:1000F000914232D22A79A16B002A17D1FC2040000C
:100100002258531C92002350A2180A2305987343C7
:10011000F932FF3250602889FB189B79009068897A
:10012000A2880190069801F00FFA10E00A207043AF
:100130006B88A2880493C3199B7968460370288949
:10014000049B019068890290069801F033FA0698A2
:10015000013624300A350690C4E7FC235B00E358DF
:10016000002B04D0FC225200A018FFF769FF09B051
:10017000F0BD0000F0B5031C42331B7885B0041CB1
:10018000052B30D1324B0A689A4226D18A68002565
:10019000531BDB7B69466B540135102DF8D1EE22E1
:1001A0005200A618301CFFF70DFD182358434030AD
:1001B0002418012323712A1C601D694601F004FBE9
:1001C0006B466A4602331B78033212781B021343D4
:1001D000E382301CFFF7A4FE38E0EE235B00C0187A
:1001E000FFF7F0FC32E0062B30D11A4B0A689A4236
:1001F00027D18A680025531B9B7C69466B540135C7
:10020000102DF8D1FC225200A618301CFFF7EEFC8E
:1002100024235843B83024180123201C23722A1C9D
:100220006946093001F0D0FA6B466A4602331B7802
:10023000033212781B0213436383301CFFF700FF65
:1002400004E0FC235B00C018FFF7D0FC05B0F0BD54
:10025000010010000100130010B50021041C402211
:1002600001F0D4FA221C40320023201C137053707A
:1002700010BD7FDF704782DF7047A7DF7047A9DFBF
:100280007047AADF704700207047002070470020A9
:100290007047002070470020704700207047002002
:1002A00070470000F0B58BB06C460E23E3820390DC
:1002B00001914B780C225343244A1634D3181889E1
:1002C00006A9221C0323FFF7DCFF00283BD1019B7A
:1002D00018275B781E4D5F4300933B1C268808332C
:1002E000EB18181C06A9321C029301F05EFA2C1CB4
:1002F00000280DD1009A0C235343144AD318997A3D
:10030000022319401FD1E819182201F07FFA1AE0E0
:10031000ED196B68002B01D00E4F00E00E4F009BD3
:1003200018256B430322E250E3185E6006A9321CD5
:10033000029801F049FA019B039859782A1C6943F5
:1003400038236118B84700200BB0F0BD1A310020E7
:10035000B4310020D91302005913020008B5FFF789
:10036000A1FF08BDF7B5041C0F1C6A46817822481E
:1003700000F0CAFF00283DD162780C214A431F4B90
:100380009A18927A530605D4022F03D0012F03D175
:100390001B4D02E01B4D00E01B4DA1781C26714354
:1003A0001A4B68465918321C0023A847002813D15D
:1003B000022F1FD063780C225343104A4021D318D8
:1003C0009A7A68468A439A726178114B7143321C5B
:1003D0005918331CA84701E0022F0BD023780C22B8
:1003E00053430C4A6846D3189A7A0B4B9200D35861
:1003F000211C9847F7BDC046DC3100201A3100208F
:1004000059130200D913020087020200283100208C
:1004100098310020CC310020D43A0200F7B5019089
:10042000437818215943264A264F50184468002C17
:100430000FD00C2058433818807A45B2002D07DAC7
:10044000450605D40E1C0836A5B296198C5802E054
:100450000024251C261C0C225343FB181889311C30
:100460002A1C231CFFF70BFF0B280BD1019A311C10
:1004700053780C225343FB1818892A1C0123FFF7D9
:10048000FEFE0124002800D00F48012C17D1019D49
:100490000C216B780D4A4B43FB181889FFF7EDFED2
:1004A00000280CD00A4B984208D0082806D0094BE7
:1004B000984203D0112801D0002000E00248FEBD80
:1004C000B43100201A31002041800000FFFF0000FD
:1004D000023000000430000008B5FFF79FFF08BDA0
:1004E00070B5031C487818246043094D0E1C281869
:1004F000191C221C382300F0AFFF002806D17378A6
:100500005C432D196B68013300D1686070BDC04633
:10051000B431002008B5FFF7E3FF08BDF0B51D1C9E
:10052000434B161C1A6893B001900F1C002A7CD014
:100530001898542879D803ABFF22002469465A70D2
:100540009A70DA701C700C760B950A90A1B239483B
:1005500004AA00F0D9FE002809D1019804A90822B4
:1005600001F023F9002802D103AB9C7002E00134B2
:10057000042CEBD103ACA278FF2A56D0042F0AD169
:10058000189A06AB542A01D1202200E040221A70AA
:100590001A7803213BE0284BEB1A6F2B11D8274B1D
:1005A000002E04D101211868914008423DD001215C
:1005B00091400A1C196891431960202206AB1A70F9
:1005C00020E01F4BEB1A1B2B09D806AB20221A7018
:1005D000002363700CAB0B9318230A9312E01948A5
:1005E0002D1A172D21D830236A4613760023637005
:1005F0000123E370144B997A0223194002D1182287
:1006000001F004F906AB032F0CD11A7801210A433B
:1006100007481A7009AB079306A90368321C201C0F
:10062000984702E01A780221F1E713B0F0BDC04606
:10063000CC310020DC31002028310020D8310020CE
:1006400098310020B43100201A31002070B51C24EC
:1006500044430E4E051C3019002134190622113076
:1006600001F0D4F8201C0021102201F0CFF8FF2364
:100670002374A37601235B4223830122044BAA4007
:10068000151C1A68AA431A6070BDC04628310020A4
:10069000D831002037B581B2051C6A46074800F002
:1006A00033FE041E08D16846542100F01DFF041ECD
:1006B00002D1281CFFF7CAFF201C3EBDDC31002000
:1006C000F0B5051C85B0002855D02C4B00242C48D3
:1006D0001C605C729C72012383725B42211C0722A6
:1006E0000381C37201F092F82648211C182201F000
:1006F0008DF8201CFFF7AAFF234BFF22E2540134A0
:10070000042CF6D16A46214F54239380204B68462F
:10071000391CD480009300F067FD3E1C00282BD1CB
:100720001C4B2C7801221A701D1C002C1AD1A1B26E
:10073000301C02AA00F0E8FD071E0CD11C22131C7D
:100740006343154802A9C0183B1C00F085FE002831
:1007500004D02F7010E000232B700DE00134042C26
:10076000E5D109E06A46D1889388381C594389B29B
:1007700000F0BAFE00E0094805B0F0BDCC31002021
:100780001A310020B431002014310020DC31002067
:100790001D05020018310020283100200E800000C5
:1007A000F8B5174B071C1B780D1C002B22D0002816
:1007B00022D0002920D00B68002B1DD0114C2668B8
:1007C000002E1BD1201C08C00531052200F0FCFFC3
:1007D000207A2B79012188430222A372104304233B
:1007E00098432072E07901430A439A43E271301C36
:1007F0003E7004E0044802E0044800E00448F8BD0C
:1008000018310020CC310020088000000E8000004C
:1008100004800000154B1B78002B22D000281ED02E
:1008200000291CD00378002B1BD1114B1B68002B17
:1008300017D04278002A16D10E4B9B7A012B12D08A
:100840002420184003D001230B70101C0CE05BB275
:10085000002B02DA02230B7006E0087004E0064861
:1008600002E0064800E006487047C0461831002004
:10087000CC3100201A3100200E80000008800000DA
:1008800010800000104B10B51B78002B19D00028E9
:1008900015D00478002C14D10C4B1B68002B10D001
:1008A000201C1C2363430A4AD3189B7EFF2B02D0D3
:1008B000201CFFF7EFFE0134042CF2D102E00548C2
:1008C00000E0054810BDC04618310020CC310020A2
:1008D000283100200E8000000880000013B5041CA1
:1008E00081786A460B4800F00FFD002810D160782F
:1008F0001C235843084A694610181A1C00F0ACFD26
:10090000064B68469A7A064B9200D358211C9847AA
:1009100013BDC046DC31002098310020CC310020CE
:10092000E43A0200F0B5C54A8FB01278FF23061CE6
:100930000393002A00D1AEE1C14A1168002900D119
:10094000A9E104AD05AF6B70AB70EB70031D7B606C
:100950002A233B81038800212970BA4C102B22D016
:10096000A17A82880191890707D5B7498A4200D1C7
:1009700045E12189914200D141E1172B00D1A8E046
:1009800007D8132B54D0142B2CD0112B00D082E17C
:100990000EE01C2B00D118E1522B00D10DE1182BD9
:1009A00000D078E1E1E0A37ADA0700D52CE172E12A
:1009B000019A022301999A43A272090707D553B2FB
:1009C000002B0BDA281C0021FFF7CCFC06E0A878EE
:1009D000FF2803D0FFF73AFEFF23AB701023A3726A
:1009E0001223F3E0E37A994FFF2B16D1F28900230B
:1009F0001C2159437918098B91420BD10199082286
:100A000003930A43DBB2E372A272281CAB70FFF7B8
:100A100065FF02E00133042BEAD1E37A0021FF2BCA
:100A200000D08B49B0883A1C0023FFF724FC32E148
:100A3000019A3B7004231343A372E37AFF2B22D164
:100A400000271C207843814B1818837EFF2B15D17B
:100A50002278031C1833022A07D0FD229A70211C29
:100A60000722103000F0B0FE01E0FE229A7003ABC6
:100A70001F700399CBB2AB70E37210E00137042F03
:100A8000DFD1744C0CE0744816230E22083000218C
:100A90003B7000F0BBFE019A44231343A372002471
:100AA0000021684B0B91DB7A1C225343674A0D915E
:100AB000D3180C93664B624A089309910A91B08847
:100AC000043208ABFFF7D5FB002800D0E3E0221C7E
:100AD0007EE05B4901224B7A9343019A4B720423D7
:100AE0009A431423A2723B70B379002B04D0E07AAE
:100AF000FFF7D0FDB2796BE0F379590767D5AB7892
:100B0000FF2B64D008210A43F17AA2728907C90F2A
:100B1000012906D11C225A434C488218907E8843F2
:100B20009076E27AFF2A52D02178484A1C26022980
:100B30000CD05E439619301C07221030211C00F0A7
:100B400043FEB37E02229343B37609E073434049E8
:100B5000D318498A1A1C19839B7E01218B439376F3
:100B6000281C0121FFF7FEFB31E0B379112B15D1D1
:100B7000019A120712D5384800210E22083000F0E1
:100B800045FE162301993B7060230B432C4AA37248
:100B9000537A2B49022213434B7218E0019A8023A7
:100BA0005B421343A37215233B70254B281C9A7A92
:100BB0002A4B9200D358984709E02149274B8A7A5B
:100BC000281C9200D358984765E013233B700022FD
:100BD0001B4905AC0B68281C211C98472378122B55
:100BE00059D11848837A012B55D0012383725B4277
:100BF0000381C3720021072200F008FE4BE0E27A75
:100C0000AA7000226A70B8E6112300223B706A7055
:100C10008388871D23810223A372201C391C07228D
:100C200000F0D2FD737D0026D9071ED50C4A5B0863
:100C3000D35CFF2B25D0039323E0C046183100205E
:100C4000CC3100201A310020FFFF000028310020A5
:100C50009831002043800000B4310020C43A0200E3
:100C6000143100200136042EB1D01C2373430B48ED
:100C7000391C1030C018072200F097FD0028F1D170
:100C8000039603990A22CBB2E372A272281CAB70BE
:100C9000FFF724FE9BE70FB0F0BDC04628310020CF
:100CA00030B5002912D00A78002A11D10A4B1B68EE
:100CB000002B0DD0FF23094C8B702589052385421D
:100CC00007D14A70E37A8B70131C02E0044B00E0FA
:100CD000044B181C30BDC046CC3100201A31002016
:100CE0000E8000000880000029DF704728DF704771
:100CF00037B5094B021C1978142041435C18E06891
:100D0000217905016369201CE4880C300094034CB0
:100D10002C59A04737BDC046E431002010320020D6
:100D2000F7B5634C00932378061C0F1C151C002B91
:100D300006D1009B134301D1022300E0012323705D
:100D400023780320013B052B00D9B0E0181C01F0EB
:100D5000B7F9032334557E91564A802351695B05C8
:100D6000013105D05069196989B201F0B3F900E089
:100D7000586980235B051D6919691A690138ABB28E
:100D800089B292B2584379439208FFF7ADFF02232C
:100D9000002800D18AE08AE0381CFFF7A7FF00286E
:100DA00000D084E00323002D00D07FE000990029CB
:100DB00022D13378042B48D177E080235B051A6970
:100DC00092B257433B4A5169013105D050691969C4
:100DD00089B201F07FF900E0586980235B05196949
:100DE000013889B241432A1C381CFFF77DFF0028D7
:100DF0005DD1009A002A25D0042357E080235B05AB
:100E00001A69718892B257432A4A7F180191516931
:100E1000AD007F19013105D05069196989B201F01F
:100E200059F900E0586980235B051969013889B2D6
:100E30004843019AAD182918009A381CFFF754FF4F
:100E4000002834D13378042B12D005232EE08023E0
:100E50005B051869728880B24743AB00D8193169C5
:100E60009208FFF741FF002821D1009B1D431CD0B1
:100E700006231BE00F4A802351695B05013105D031
:100E80005069196989B201F025F900E05869802399
:100E90005B051A691969013893B2584389B201F0A8
:100EA00019F9FFF723FF002801D107232370FEBDA6
:100EB0002932002000100010F8B5324E1422337889
:100EC0005343F3181C1D1B79E568042B18D0052B20
:100ED00039D00F20022B54D12B4B628818882369FC
:100EE00080021918A388121A5D19284B28189A42F3
:100EF00001D8920801E080225200FFF7F5FE3CE0A5
:100F0000A26823491301CB18198958895B68802787
:100F10007F05AB4203D141436388994201D0022A45
:100F20000AD13969281C89B201F0D4F8164B1B8804
:100F3000C018FFF7DBFE20E03969281C89B201F0F8
:100F4000C9F8011C09E080277F053969281C89B28E
:100F500001F0C0F8A388011C5D193A693B6992B29F
:100F6000481C4A439BB243436088AA1A45195B1B3D
:100F700092089B08201CFFF7D3FE002801D1012313
:100F8000B370F8BDE43100202A320020FF030000D6
:100F900010320020F8B5134C061C657806A80788A7
:100FA0000420022D1DD020782D18EDB2012D01D97D
:100FB000023DEDB21420454365196A612A1C2E7169
:100FC0000C3241C941C2EB802F81A378002B01D0A4
:100FD000002003E0FFF770FF1128F9D06378013398
:100FE0006370F8BDE431002008B5084B00205B7841
:100FF000834209D0FFF760FF002805D0031C113B96
:101000005A1E93415B42184008BDC046E43100209F
:10101000F0B53F4A87B09378141C002B75D03D493A
:10102000002393700A78082A06D1022801D10B7098
:1010300065E0394A137062E0022803D0032864D1C6
:101040000D2060E0217814204843344D2018011D04
:101050008C4629880079013189B2019129800228C2
:101060000AD18E02614649880296029FF517CE0F7B
:101070008F426E41059607E0052804D1D51F6E42C8
:101080007541059301E005931D1C04280BD1D31F66
:10109000584243410198664681027088814205DBCF
:1010A00051424A4103E000231A1C00E00022002DB7
:1010B00007D1002B05D1002A03D1059F01231F4230
:1010C0001DD0144800250570281CFFF711FE22785A
:1010D00014235343114EE31801201D71DD80D860A5
:1010E0001D615D611D8135806378013B637013185C
:1010F000DBB2834201D8237001E0013A2270FFF78E
:1011000073FF002801D0FFF7F3FD07B0F0BDC04624
:10111000E431002029320020283200202A32002029
:1011200038B5294B00221A80284B0121D960196259
:10113000274C28491A705A701A711A611A765A6225
:101140009A70DA805A611A815A839A629A830A8065
:1011500062691D1C80235B05013205D06069196935
:1011600089B200F0B7FF00E0586980235B051A6977
:10117000023892B25043184A00211060174A116099
:10118000118191815181164A0821117062690132E1
:1011900006D00F4A5069196989B200F09BFF00E040
:1011A000586980235B051A691969013893B258435D
:1011B00089B200F08FFFFFF799FD002803D1094A9B
:1011C0000123AB70137038BD2A320020E4310020B7
:1011D00000100010203200202432002010320020A5
:1011E0002932002028320020F0B5424B87B01B780E
:1011F0000F1C0824002B79D0002876D0002974D049
:1012000004680494002C70D080235B051A698588DB
:1012100092B20724954269D80F2D67D9C0880190F2
:10122000002863D0041C6C43334A03941268261CC4
:101230000292A418314A05945169013105D05069D0
:10124000196989B200F046FF00E0586980235B0508
:101250001A69013892B2504305990724814245D852
:101260001A69039992B2914207DD1869291C80B26C
:1012700000F074FF89B2002938D1032028400724E8
:10128000002833D11E4A042413889446012B2DD004
:10129000029C1C4A7C603B601C01029F11194F603C
:1012A000049FA750019C0D814C8113490C680D1CB3
:1012B000802149050F690130BFB280B2BE4203D917
:1012C0000F69BFB2F61B00E000260F690969BFB2C3
:1012D00089B2E4198E42EBD21901521801336746E4
:1012E0002C6090813B80002400E00E24201C07B07D
:1012F000F0BDC0462832002024320020001000102B
:101300002032002010320020114B30B51C78082309
:10131000002C1AD0002815D0002A13D00368002B07
:1013200012D10C4C2568002D0ED0258940686943E8
:1013300009186089454360682D18A94204D21360DA
:10134000516002E00E2300E00723181C30BDC046A8
:101350002832002010320020F0B5141C1C4A051C55
:10136000127885B00F1C0820002A2ED000292BD01F
:10137000002D29D029680720002926D1154E326872
:10138000002A22D0696803913289718976685143B5
:101390008C4603996644B14217D2002C15D0944272
:1013A00013D8E618964210DC0322102017420CD105
:1013B00013420AD1114208D10093291C3A1C231C64
:1013C0000220FFF7E7FD00E00E2005B0F0BDC046AB
:1013D0002832002010320020F0B5141C1C4A051CD5
:1013E000127885B00F1C0820002A2ED000292BD09F
:1013F000002D29D029680720002926D1154E3268F2
:10140000002A22D069680391328971897668514334
:101410008C4603996644B14217D2002C15D09442F1
:1014200013D8E618964210DC0322102017420CD184
:1014300013420AD1114208D10093291C3A1C231CE3
:101440000520FFF7A7FD00E00E2005B0F0BDC04667
:101450002832002010320020F0B5161C204A85B03A
:10146000127802900D1C0824002A36D000292FD0B3
:1014700000282DD00C68002C2CD11A4F3A68002A75
:1014800028D04A68788939894843844678688444F2
:1014900062451FD2002E1DD08E421BD8F018884204
:1014A00018DC02980321084216D10B4214D11140D6
:1014B000039111D19918321C00F086F92A68009620
:1014C0001301FE58281C0321039A029BB04704E035
:1014D0000E2402E0072400E01024201C05B0F0BD1B
:1014E0002832002010320020154B73B51B78041CE5
:1014F0000D1C0820002B22D0002C1FD022680720B2
:10150000002A1CD10F4A1368002B18D05668118985
:10151000528963684A439219934210D210209A0765
:101520000DD1981B00F01AFE07200A1E07D100916A
:101530002B1C211C0420FFF72DFD00E00E2076BDA2
:10154000283200201032002030B503AC258804ACCE
:101550002488428484830122047E4583151C1D4017
:1015600001609443590811402C4302259140AC433B
:101570009D0815400C430421AD008C43D90811404F
:101580002C430825C900AC431D0915400C4310210C
:101590002D018C432C43590920259B09AC43114054
:1015A0001A4093014901221C0A4340218A431A43ED
:1015B000027630BDF0B589B00FAD2D880EAC019527
:1015C00010AD2D8801604284002103AA2478009583
:1015D000117003AA5718002501317D701029F8D128
:1015E0005382031DE0CAE0C3A0CAA0C30123019E29
:1015F000027E1D1C254046839A4366081E402A43EE
:1016000002259E40AA43A5081D4032430426AD0092
:10161000B243E6081E402A430825F600AA43324397
:1016200025091D408A432D01111C294362092025EB
:10163000A4091A40A94323409C0152010B1C1343E7
:101640004022009F934323438783037609B0F0BD74
:10165000C18370470184704708B500F001F808BDE8
:1016600010B5041E02D1012400E09847201C00F0B0
:101670007DF8002805D1034B1B68002BF5D100F045
:1016800022F810BD2C32002008B5002801D000F04F
:1016900077F808BD026808B501231A4207D14278DD
:1016A000002A01D000F00FF84370181C00E0002061
:1016B00008BD01230360704708B5031C081C191CF2
:1016C00000F008F808BD08B5062000F081F90120F7
:1016D000FBF78CFD38B5051C05480C1C131C0028B5
:1016E00004D00220291C221C00E000BF38BDC046E7
:1016F00000000000084B10B5041C002B02D0002194
:1017000000E000BF054B1868836A002B00D09847A3
:10171000201CFBF76BFDC04600000000543B02009C
:1017200070B50E4B0E4D0024ED1AAD101E1CAC42D0
:1017300004D0A300F35898470134F8E701F0E0FD26
:10174000084B094D0024ED1AAD101E1CAC4204D00C
:10175000A300F35898470134F8E770BDA028002093
:10176000A0280020A0280020B828002008B5034B9E
:10177000011C186800F09AF808BDC0469C2800209B
:1017800008B5034B011C186800F048F808BDC046B6
:101790009C280020C9B28218904204D003788B4262
:1017A00002D00130F8E70020704730B500239342A3
:1017B00008D0C55C0133CC18013C2478A542F6D092
:1017C000281B00E0002030BD10B50023934203D059
:1017D000CC5CC4540133F9E710BD70B5814201D32C
:1017E00000230CE08C18A042FAD28518131C013B90
:1017F0000BD351426618F65C6918CE54F7E7934252
:1018000003D0CC5CC4540133F9E770BD031C8218CB
:10181000934202D019700133FAE7704730B50029BE
:1018200040D004390B68002B00DAC9181E4A13682F
:10183000141C002B02D14B60116033E099420FD28F
:1018400008680A189A4205D113685268C0180860DF
:101850004A6000E04B60216024E08A4203D8131CF8
:101860005A68002AF9D11D685C198C420BD10968AD
:10187000691858181960904214D1146852680919EF
:1018800019605A600EE08C4202D90C23036009E013
:1018900008680C18944203D1146852680019086053
:1018A0004A60596030BDC0463432002070B5032311
:1018B000CD1C9D430835061C0C2D01D20C2501E0E2
:1018C000002D3FDB8D423DD3204B1C681A1C211C90
:1018D000002913D00868431B0DD40B2B02D90B60D1
:1018E000CC181EE08C4202D1636813601AE048688D
:1018F00060600C1C16E00C1C4968E9E7144C206879
:10190000002803D1301C00F025F82060301C291C71
:1019100000F020F8431C15D0C41C03239C438442D0
:101920000AD12560201C0B300722231D9043C31AC7
:101930000BD05A42E25008E0211A301C00F00AF89D
:101940000130EED10C233360002070BD3432002012
:101950003032002038B5074C0023051C081C2360DA
:10196000FBF72EFC431C03D12368002B00D02B6017
:1019700038BDC0463832002038B5041C0D1E1F2D5E
:1019800004D916230360012040421FE0436C002B62
:1019900004D08A009A181368002B08D1201C00F08C
:1019A00033F82A1C011C201C00F01CF80EE0012B4F
:1019B0000BD0591C03D116230360012006E000243C
:1019C000281C14609847201C00E0002038BD00004F
:1019D00008B5034B011C1868FFF7CEFF08BDC046D1
:1019E0009C28002038B5074C0023051C081C111C3E
:1019F000236001F07DFC431C03D12368002B00D041
:101A00002B6038BD3832002008B501F069FC08BDF4
:101A10000CB430B5164B9DB00C1C1D6804D58B233F
:101A200001202B6040421DE0822302A99B008B8194
:101A30000023029008619C4200D0631E8B604B61C2
:101A400001235B42CB81209A21AB281C019300F03B
:101A50008DF8421C01DA8B232B60002C02D0029AF5
:101A6000002313701DB030BC08BC02B01847C0463C
:101A70009C2800200023C25C0133002AFBD1581EA1
:101A8000704730B5031C002A07D00C7801335D1E67
:101A9000013A2C700131002CF5D19A18934203D0F1
:101AA000002119700133F9E730BD0000F0B58D68F1
:101AB00085B0071C0C1C03920193AB4245D39022C6
:101AC0008B89D20013423DD06269032656430969CF
